:1000000075B00075A00F759000D294C295C2427869
:10001000307E017F80C2D4C2D375800075800F7599
:1000200090F77E0690033FE493117F119D6003A338
:1000300080F57590F7C24278307E06900310740107
:10004000117F119DE493118E119DA3600280F53004
:10005000A32A80FB9003437401117F119DE4931147
:100060008E119DA3600280F590035274C0117F1120
:100070009DE493118E119DA3603C80F50200E51173
:10008000A6F5B0C2A4C2A5D2A6119DC2A62211A6F1
:10009000F5B0D2A4C2A5D2A6119DC2A6227B007C37
:1000A000FFDCFEDBFA22D2B7C2A4D2A5C2A6119D04
:1000B000D2A620B7F7227590F6D294C295D24230DC
:1000C000A32330A013D296EFFD8D8011DF30A3154E
:1000D000C296AD0A11E280E77E06C242020032DD1E
:1000E000FE22DDFE2279037F00C2967401117F118A
:1000F0009D30420E900360E493118E119DA3600227
:1001000080F5759000E5A0540FB40FF65117E5A0E7
:10011000540FB40F0280F55117E5A0540FB40F022D
:1001200080EA7590FEC296E5A0540FB40F27759033
:10013000FDC296E5A0540FB40F207590FBC296E562
:10014000A0540FB40F197590F7C296E5A0540FB4E0
:100150000F1202010C900300800F900304800A909C
:100160000308800590030C8000135003A380FA302D
:1001700042030201F0E493F612008E1EEE601108B5
:100180007590FF020102D2427E0102005402003249
:10019000E412009D740112009D748012009D900372
:1001A0001BE493B53022A3E493B5311CA3E493B5CB
:1001B0003216A3E493B53310A3E493B5340AA3E451
:1001C00093B53504A3E4801490032274C0117F1109
:1001D0009DE493118E119DA360B380F5900330745C
:1001E000C0117F119DE493118E119DA3609880F53D
:1001F000E493F5B0118E540FD90B2FC2D3FF740ABC
:100200009FFE020054510A020102FBE9FAEB75F06D
:100210000AA4DAFA2FFF227B207A20DAFEDBFA2208
:1003000031323330343536303738393030303045AB
:1003100050415353574F52443A2000313232343710
:1003200034004143434553532044454E494544001E
:10033000414343455353204752414E5445440038AE
:100340000E0100707265737320452D656E746572C1
:100350002000746F206368616E67652050574D0000
:0B036000456E7465722050574D2D0053
:00000001FF
